{
  "contractName": "Whisper",
  "abi": [
    {
      "constant": true,
      "inputs": [
        {
          "name": "",
          "type": "uint256"
        },
        {
          "name": "",
          "type": "uint256"
        }
      ],
      "name": "feedback",
      "outputs": [
        {
          "name": "",
          "type": "uint256"
        }
      ],
      "payable": false,
      "stateMutability": "view",
      "type": "function"
    },
    {
      "constant": true,
      "inputs": [],
      "name": "DEDUCTFEEDBACK",
      "outputs": [
        {
          "name": "",
          "type": "uint256"
        }
      ],
      "payable": false,
      "stateMutability": "view",
      "type": "function"
    },
    {
      "constant": true,
      "inputs": [
        {
          "name": "",
          "type": "uint256"
        },
        {
          "name": "",
          "type": "uint256"
        }
      ],
      "name": "tags",
      "outputs": [
        {
          "name": "",
          "type": "bytes32"
        }
      ],
      "payable": false,
      "stateMutability": "view",
      "type": "function"
    },
    {
      "constant": true,
      "inputs": [],
      "name": "feedbackProfit",
      "outputs": [
        {
          "name": "",
          "type": "uint256"
        }
      ],
      "payable": false,
      "stateMutability": "view",
      "type": "function"
    },
    {
      "constant": true,
      "inputs": [],
      "name": "DEDUCTPOINT",
      "outputs": [
        {
          "name": "",
          "type": "uint256"
        }
      ],
      "payable": false,
      "stateMutability": "view",
      "type": "function"
    },
    {
      "constant": true,
      "inputs": [],
      "name": "whisperOpen",
      "outputs": [
        {
          "name": "",
          "type": "bool"
        }
      ],
      "payable": false,
      "stateMutability": "view",
      "type": "function"
    },
    {
      "constant": true,
      "inputs": [],
      "name": "DEDUCTADMIN",
      "outputs": [
        {
          "name": "",
          "type": "uint256"
        }
      ],
      "payable": false,
      "stateMutability": "view",
      "type": "function"
    },
    {
      "constant": true,
      "inputs": [],
      "name": "adminProfit",
      "outputs": [
        {
          "name": "",
          "type": "uint256"
        }
      ],
      "payable": false,
      "stateMutability": "view",
      "type": "function"
    },
    {
      "constant": true,
      "inputs": [],
      "name": "DEDUCTPOST",
      "outputs": [
        {
          "name": "",
          "type": "uint256"
        }
      ],
      "payable": false,
      "stateMutability": "view",
      "type": "function"
    },
    {
      "constant": true,
      "inputs": [
        {
          "name": "",
          "type": "uint256"
        }
      ],
      "name": "secrets",
      "outputs": [
        {
          "name": "title",
          "type": "bytes"
        },
        {
          "name": "description",
          "type": "bytes"
        },
        {
          "name": "payAmount",
          "type": "uint256"
        },
        {
          "name": "available",
          "type": "bool"
        },
        {
          "name": "publisher",
          "type": "address"
        },
        {
          "name": "publishTime",
          "type": "uint256"
        },
        {
          "name": "closeTime",
          "type": "uint256"
        },
        {
          "name": "payTimes",
          "type": "uint256"
        }
      ],
      "payable": false,
      "stateMutability": "view",
      "type": "function"
    },
    {
      "constant": true,
      "inputs": [],
      "name": "payOpen",
      "outputs": [
        {
          "name": "",
          "type": "bool"
        }
      ],
      "payable": false,
      "stateMutability": "view",
      "type": "function"
    },
    {
      "constant": true,
      "inputs": [],
      "name": "secretOpen",
      "outputs": [
        {
          "name": "",
          "type": "bool"
        }
      ],
      "payable": false,
      "stateMutability": "view",
      "type": "function"
    },
    {
      "constant": true,
      "inputs": [],
      "name": "MINPAY",
      "outputs": [
        {
          "name": "",
          "type": "uint256"
        }
      ],
      "payable": false,
      "stateMutability": "view",
      "type": "function"
    },
    {
      "constant": true,
      "inputs": [],
      "name": "admin",
      "outputs": [
        {
          "name": "",
          "type": "address"
        }
      ],
      "payable": false,
      "stateMutability": "view",
      "type": "function"
    },
    {
      "inputs": [
        {
          "name": "ownerArg",
          "type": "address"
        }
      ],
      "payable": false,
      "stateMutability": "nonpayable",
      "type": "constructor"
    },
    {
      "anonymous": false,
      "inputs": [
        {
          "indexed": true,
          "name": "id",
          "type": "uint256"
        },
        {
          "indexed": true,
          "name": "publisher",
          "type": "address"
        },
        {
          "indexed": false,
          "name": "title",
          "type": "bytes"
        },
        {
          "indexed": false,
          "name": "publishTime",
          "type": "uint256"
        },
        {
          "indexed": false,
          "name": "payAmount",
          "type": "uint256"
        }
      ],
      "name": "NewSecret",
      "type": "event"
    },
    {
      "anonymous": false,
      "inputs": [
        {
          "indexed": true,
          "name": "id",
          "type": "uint256"
        },
        {
          "indexed": true,
          "name": "payUser",
          "type": "address"
        },
        {
          "indexed": false,
          "name": "payTime",
          "type": "uint256"
        }
      ],
      "name": "PaySecret",
      "type": "event"
    },
    {
      "anonymous": false,
      "inputs": [
        {
          "indexed": true,
          "name": "id",
          "type": "uint256"
        },
        {
          "indexed": true,
          "name": "feedbackUser",
          "type": "address"
        },
        {
          "indexed": false,
          "name": "feedbackTime",
          "type": "uint256"
        },
        {
          "indexed": false,
          "name": "rewardAmount",
          "type": "uint256"
        }
      ],
      "name": "FeedBackSecret",
      "type": "event"
    },
    {
      "constant": false,
      "inputs": [
        {
          "name": "_sw",
          "type": "bool"
        }
      ],
      "name": "modifyNewSecret",
      "outputs": [],
      "payable": false,
      "stateMutability": "nonpayable",
      "type": "function"
    },
    {
      "constant": false,
      "inputs": [
        {
          "name": "_sw",
          "type": "bool"
        }
      ],
      "name": "modifyPaySecret",
      "outputs": [],
      "payable": false,
      "stateMutability": "nonpayable",
      "type": "function"
    },
    {
      "constant": false,
      "inputs": [
        {
          "name": "_ava",
          "type": "bool"
        }
      ],
      "name": "modifyWhisper",
      "outputs": [],
      "payable": false,
      "stateMutability": "nonpayable",
      "type": "function"
    },
    {
      "constant": false,
      "inputs": [
        {
          "name": "_admin",
          "type": "address"
        }
      ],
      "name": "modifyAdmin",
      "outputs": [],
      "payable": false,
      "stateMutability": "nonpayable",
      "type": "function"
    },
    {
      "constant": false,
      "inputs": [
        {
          "name": "_title",
          "type": "bytes"
        },
        {
          "name": "_desc",
          "type": "bytes"
        },
        {
          "name": "_content",
          "type": "bytes"
        },
        {
          "name": "_tag",
          "type": "bytes32[]"
        },
        {
          "name": "_coin",
          "type": "uint256"
        },
        {
          "name": "_closeTime",
          "type": "uint256"
        }
      ],
      "name": "setNewSecret",
      "outputs": [
        {
          "name": "success",
          "type": "bool"
        }
      ],
      "payable": false,
      "stateMutability": "nonpayable",
      "type": "function"
    },
    {
      "constant": false,
      "inputs": [
        {
          "name": "_sid",
          "type": "uint256"
        }
      ],
      "name": "paySecret",
      "outputs": [
        {
          "name": "",
          "type": "bytes"
        }
      ],
      "payable": true,
      "stateMutability": "payable",
      "type": "function"
    },
    {
      "constant": false,
      "inputs": [
        {
          "name": "_sid",
          "type": "uint256"
        },
        {
          "name": "_like",
          "type": "bool"
        }
      ],
      "name": "feedBackSecret",
      "outputs": [
        {
          "name": "success",
          "type": "bool"
        }
      ],
      "payable": false,
      "stateMutability": "nonpayable",
      "type": "function"
    },
    {
      "constant": false,
      "inputs": [],
      "name": "withdrawAdminProfit",
      "outputs": [],
      "payable": false,
      "stateMutability": "nonpayable",
      "type": "function"
    },
    {
      "constant": false,
      "inputs": [
        {
          "name": "_sid",
          "type": "uint256"
        },
        {
          "name": "_ava",
          "type": "bool"
        }
      ],
      "name": "modifyOneSecret",
      "outputs": [
        {
          "name": "",
          "type": "bool"
        }
      ],
      "payable": false,
      "stateMutability": "nonpayable",
      "type": "function"
    },
    {
      "constant": true,
      "inputs": [],
      "name": "secretCount",
      "outputs": [
        {
          "name": "",
          "type": "uint256"
        }
      ],
      "payable": false,
      "stateMutability": "view",
      "type": "function"
    }
  ],
  "bytecode": "0x608060405260008055600060015534801561001957600080fd5b50604051602080612e608339810180604052810190808051906020019092919050505080600260006101000a81548173ffffffffffffffffffffffffffffffffffffffff021916908373ffffffffffffffffffffffffffffffffffffffff1602179055506001600260166101000a81548160ff0219169083151502179055506001600260146101000a81548160ff0219169083151502179055506001600260156101000a81548160ff02191690831515021790555050612d82806100de6000396000f30060806040526004361061013e576000357c0100000000000000000000000000000000000000000000000000000000900463ffffffff16806304b210c614610143578063055b1edd1461018e5780631f8de536146101d15780632069b8ba146101fc5780633156f62d146102275780633eea800c1461027a5780634bb9663e146102a55780635d6ce525146102f65780636a346a091461032157806372d37e371461035057806374f2aafe1461037f57806383f03bf6146103aa578063843a60e4146103d55780638440be97146103ec5780638842da9314610550578063a5f4b27a1461057b578063c4347ffc146105aa578063c86df00414610643578063de9702a414610672578063eb6b6165146107de578063f5a8716e1461080d578063f5e0176f1461083c578063f74cf53914610867578063f851a440146108b8575b600080fd5b34801561014f57600080fd5b50610178600480360381019080803590602001909291908035906020019092919050505061090f565b6040518082815260200191505060405180910390f35b34801561019a57600080fd5b506101cf600480360381019080803573ffffffffffffffffffffffffffffffffffffffff169060200190929190505050610936565b005b3480156101dd57600080fd5b506101e6610b05565b6040518082815260200191505060405180910390f35b34801561020857600080fd5b50610211610b12565b6040518082815260200191505060405180910390f35b34801561023357600080fd5b5061025c6004803603810190808035906020019092919080359060200190929190505050610b17565b60405180826000191660001916815260200191505060405180910390f35b34801561028657600080fd5b5061028f610b47565b6040518082815260200191505060405180910390f35b3480156102b157600080fd5b506102dc60048036038101908080359060200190929190803515159060200190929190505050610b4d565b604051808215151515815260200191505060405180910390f35b34801561030257600080fd5b5061030b611132565b6040518082815260200191505060405180910390f35b34801561032d57600080fd5b50610336611137565b604051808215151515815260200191505060405180910390f35b34801561035c57600080fd5b5061037d60048036038101908080351515906020019092919050505061114a565b005b34801561038b57600080fd5b50610394611338565b6040518082815260200191505060405180910390f35b3480156103b657600080fd5b506103bf61133d565b6040518082815260200191505060405180910390f35b3480156103e157600080fd5b506103ea611343565b005b3480156103f857600080fd5b50610536600480360381019080803590602001908201803590602001908080601f0160208091040260200160405190810160405280939291908181526020018383808284378201915050505050509192919290803590602001908201803590602001908080601f0160208091040260200160405190810160405280939291908181526020018383808284378201915050505050509192919290803590602001908201803590602001908080601f016020809104026020016040519081016040528093929190818152602001838380828437820191505050505050919291929080359060200190820180359060200190808060200260200160405190810160405280939291908181526020018383602002808284378201915050505050509192919290803590602001909291908035906020019092919050505061158a565b604051808215151515815260200191505060405180910390f35b34801561055c57600080fd5b50610565611cef565b6040518082815260200191505060405180910390f35b34801561058757600080fd5b506105a8600480360381019080803515159060200190929190505050611cf4565b005b6105c860048036038101908080359060200190929190505050611e61565b6040518080602001828103825283818151815260200191508051906020019080838360005b838110156106085780820151818401526020810190506105ed565b50505050905090810190601f1680156106355780820380516001836020036101000a031916815260200191505b509250505060405180910390f35b34801561064f57600080fd5b5061067060048036038101908080351515906020019092919050505061254d565b005b34801561067e57600080fd5b5061069d600480360381019080803590602001909291905050506126ba565b604051808060200180602001898152602001881515151581526020018773ffffffffffffffffffffffffffffffffffffffff1673ffffffffffffffffffffffffffffffffffffffff16815260200186815260200185815260200184815260200183810383528b818151815260200191508051906020019080838360005b8381101561073557808201518184015260208101905061071a565b50505050905090810190601f1680156107625780820380516001836020036101000a031916815260200191505b5083810382528a818151815260200191508051906020019080838360005b8381101561079b578082015181840152602081019050610780565b50505050905090810190601f1680156107c85780820380516001836020036101000a031916815260200191505b509a505050505050505050505060405180910390f35b3480156107ea57600080fd5b506107f361286e565b604051808215151515815260200191505060405180910390f35b34801561081957600080fd5b50610822612881565b604051808215151515815260200191505060405180910390f35b34801561084857600080fd5b50610851612894565b6040518082815260200191505060405180910390f35b34801561087357600080fd5b5061089e6004803603810190808035906020019092919080351515906020019092919050505061289e565b604051808215151515815260200191505060405180910390f35b3480156108c457600080fd5b506108cd612ab2565b604051808273ffffffffffffffffffffffffffffffffffffffff1673ffffffffffffffffffffffffffffffffffffffff16815260200191505060405180910390f35b60086020528160005260406000208160028110151561092a57fe5b01600091509150505481565b3373ffffffffffffffffffffffffffffffffffffffff16600260009054906101000a900473ffffffffffffffffffffffffffffffffffffffff1673ffffffffffffffffffffffffffffffffffffffff161415156109fb576040517f08c379a00000000000000000000000000000000000000000000000000000000081526004018080602001828103825260188152602001807f496e73756666696369656e74207065726d697373696f6e73000000000000000081525060200191505060405180910390fd5b600260009054906101000a900473ffffffffffffffffffffffffffffffffffffffff1673ffffffffffffffffffffffffffffffffffffffff168173ffffffffffffffffffffffffffffffffffffffff1614151515610ac1576040517f08c379a000000000000000000000000000000000000000000000000000000000815260040180806020018281038252600f8152602001807f5365742061206e65772061646d696e000000000000000000000000000000000081525060200191505060405180910390fd5b80600260006101000a81548173ffffffffffffffffffffffffffffffffffffffff021916908373ffffffffffffffffffffffffffffffffffffffff16021790555050565b6000600380549050905090565b600a81565b600560205281600052604060002081815481101515610b3257fe5b90600052602060002001600091509150505481565b60015481565b600080600060011515600260169054906101000a900460ff161515141515610c03576040517f08c379a00000000000000000000000000000000000000000000000000000000081526004018080602001828103825260218152602001807f54686520736563726574732061726520636c6f7365642061742070726573656e81526020017f740000000000000000000000000000000000000000000000000000000000000081525060400191505060405180910390fd5b84600380549050111515610c7f576040517f08c379a00000000000000000000000000000000000000000000000000000000081526004018080602001828103825260138152602001807f536563726574206973206e6f742065786973740000000000000000000000000081525060200191505060405180910390fd5b600385815481101515610c8e57fe5b90600052602060002090600702019150600115158260030160009054906101000a900460ff161515141515610d2b576040517f08c379a00000000000000000000000000000000000000000000000000000000081526004018080602001828103825260178152602001807f536563726574206973206e6f7420617661696c61626c6500000000000000000081525060200191505060405180910390fd5b6000600660003373ffffffffffffffffffffffffffffffffffffffff1673ffffffffffffffffffffffffffffffffffffffff168152602001908152602001600020600087815260200190815260200160002054111515610df3576040517f08c379a00000000000000000000000000000000000000000000000000000000081526004018080602001828103825260158152602001807f506179207468697320736563726574204669727374000000000000000000000081525060200191505060405180910390fd5b6000600760003373ffffffffffffffffffffffffffffffffffffffff1673ffffffffffffffffffffffffffffffffffffffff168152602001908152602001600020600087815260200190815260200160002054141515610ebb576040517f08c379a00000000000000000000000000000000000000000000000000000000081526004018080602001828103825260108152602001807f596f752068617665206c696b652069740000000000000000000000000000000081525060200191505060405180910390fd5b8315610ef7576001600860008781526020019081526020016000206000600281101515610ee457fe5b0160008282540192505081905550610f29565b6001600860008781526020019081526020016000206001600281101515610f1a57fe5b01600082825401925050819055505b600090506001600860008781526020019081526020016000206001600281101515610f5057fe5b0154600860008881526020019081526020016000206000600281101515610f7357fe5b0154011415610f95576064601460015402811515610f8d57fe5b049050610faa565b6064600a60015402811515610fa657fe5b0490505b80600154111515611023576040517f08c379a000000000000000000000000000000000000000000000000000000000815260040180806020018281038252600f8152602001807f4e6f7420656e6f75676820636f696e000000000000000000000000000000000081525060200191505060405180910390fd5b8060016000828254039250508190555042600760003373ffffffffffffffffffffffffffffffffffffffff1673ffffffffffffffffffffffffffffffffffffffff1681526020019081526020016000206000878152602001908152602001600020819055503373ffffffffffffffffffffffffffffffffffffffff16857f9d724c91eabc6c7c26d63e8e50606edd2edc497e941d352ee3efa45d45e354a14284604051808381526020018281526020019250505060405180910390a33373ffffffffffffffffffffffffffffffffffffffff166108fc829081150290604051600060405180830381858888f19350505050158015611125573d6000803e3d6000fd5b5060019250505092915050565b606481565b600260169054906101000a900460ff1681565b60003373ffffffffffffffffffffffffffffffffffffffff16600260009054906101000a900473ffffffffffffffffffffffffffffffffffffffff1673ffffffffffffffffffffffffffffffffffffffff16141515611211576040517f08c379a00000000000000000000000000000000000000000000000000000000081526004018080602001828103825260188152602001807f496e73756666696369656e74207065726d697373696f6e73000000000000000081525060200191505060405180910390fd5b811515600260169054906101000a900460ff1615151415151561129c576040517f08c379a000000000000000000000000000000000000000000000000000000000815260040180806020018281038252600e8152602001807f4e6f7468696e67206368616e676500000000000000000000000000000000000081525060200191505060405180910390fd5b81151561131a5760015490506000600181905550600260009054906101000a900473ffffffffffffffffffffffffffffffffffffffff1673ffffffffffffffffffffffffffffffffffffffff166108fc829081150290604051600060405180830381858888f19350505050158015611318573d6000803e3d6000fd5b505b81600260166101000a81548160ff0219169083151502179055505050565b600a81565b60005481565b60003373ffffffffffffffffffffffffffffffffffffffff16600260009054906101000a900473ffffffffffffffffffffffffffffffffffffffff1673ffffffffffffffffffffffffffffffffffffffff1614151561140a576040517f08c379a00000000000000000000000000000000000000000000000000000000081526004018080602001828103825260188152602001807f496e73756666696369656e74207065726d697373696f6e73000000000000000081525060200191505060405180910390fd5b60008054111515611483576040517f08c379a000000000000000000000000000000000000000000000000000000000815260040180806020018281038252600e8152602001807f4e6f2061646d696e50726f66697400000000000000000000000000000000000081525060200191505060405180910390fd5b6000549050803073ffffffffffffffffffffffffffffffffffffffff163110151515611517576040517f08c379a00000000000000000000000000000000000000000000000000000000081526004018080602001828103825260108152602001807f6e6f7420656e6f756768206d6f6e65790000000000000000000000000000000081525060200191505060405180910390fd5b60008081905550600260009054906101000a900473ffffffffffffffffffffffffffffffffffffffff1673ffffffffffffffffffffffffffffffffffffffff166108fc829081150290604051600060405180830381858888f19350505050158015611586573d6000803e3d6000fd5b5050565b600080600060011515600260169054906101000a900460ff161515141515611640576040517f08c379a00000000000000000000000000000000000000000000000000000000081526004018080602001828103825260218152602001807f54686520736563726574732061726520636c6f7365642061742070726573656e81526020017f740000000000000000000000000000000000000000000000000000000000000081525060400191505060405180910390fd5b60011515600260149054906101000a900460ff1615151415156116f1576040517f08c379a00000000000000000000000000000000000000000000000000000000081526004018080602001828103825260218152602001807f54686520736563726574732061726520636c6f7365642061742070726573656e81526020017f740000000000000000000000000000000000000000000000000000000000000081525060400191505060405180910390fd5b60008414806116ff57504284115b1515611799576040517f08c379a00000000000000000000000000000000000000000000000000000000081526004018080602001828103825260308152602001807f436c6f73652074696d65206d7573742062652067726561746572207468616e2081526020017f7468652063757272656e742074696d650000000000000000000000000000000081525060400191505060405180910390fd5b655af3107a40008510151515611817576040517f08c379a000000000000000000000000000000000000000000000000000000000815260040180806020018281038252600e8152602001807f50617920697320746f6f206c6f7700000000000000000000000000000000000081525060200191505060405180910390fd5b6000895111801561182a5750603c895111155b15156118c4576040517f08c379a000000000000000000000000000000000000000000000000000000000815260040180806020018281038252602c8152602001807f5469746c652063616e6e6f7420626520656d70747920616e64206c657373207481526020017f68616e20323020776f726473000000000000000000000000000000000000000081525060400191505060405180910390fd5b600087511180156118d757506105dc8751105b1515611971576040517f08c379a000000000000000000000000000000000000000000000000000000000815260040180806020018281038252602e8152602001807f416e737765722063616e6e6f7420626520656d70747920616e64206c6573732081526020017f7468616e2035303020776f72647300000000000000000000000000000000000081525060400191505060405180910390fd5b6105dc88511015156119eb576040517f08c379a000000000000000000000000000000000000000000000000000000000815260040180806020018281038252601f8152602001807f4465736372697074696f6e206c657373207468616e2035303020776f7264730081525060200191505060405180910390fd5b600380548091906001016119ff9190612ad8565b9150610100604051908101604052808a81526020018981526020018681526020016001151581526020013373ffffffffffffffffffffffffffffffffffffffff1681526020014281526020018581526020016000815250600383815481101515611a6557fe5b90600052602060002090600702016000820151816000019080519060200190611a8f929190612b0a565b506020820151816001019080519060200190611aac929190612b0a565b506040820151816002015560608201518160030160006101000a81548160ff02191690831515021790555060808201518160030160016101000a81548173ffffffffffffffffffffffffffffffffffffffff021916908373ffffffffffffffffffffffffffffffffffffffff16021790555060a0820151816004015560c0820151816005015560e0820151816006015590505086600460008481526020019081526020016000209080519060200190611b66929190612b8a565b50600090505b8551811015611bdc57600560008381526020019081526020016000208682815181101515611b9657fe5b9060200190602002015190806001815401808255809150509060018203906000526020600020016000909192909190915090600019169055508080600101915050611b6c565b6040805190810160405280600060ff168152602001600060ff1681525060086000848152602001908152602001600020906002611c1a929190612c0a565b503373ffffffffffffffffffffffffffffffffffffffff16827fb8a9302c59edd096f2607a28355bcf722ed6b05fd36481d2677bec00fcff81118b42896040518080602001848152602001838152602001828103825285818151815260200191508051906020019080838360005b83811015611ca3578082015181840152602081019050611c88565b50505050905090810190601f168015611cd05780820380516001836020036101000a031916815260200191505b5094505050505060405180910390a36001925050509695505050505050565b605081565b3373ffffffffffffffffffffffffffffffffffffffff16600260009054906101000a900473ffffffffffffffffffffffffffffffffffffffff1673ffffffffffffffffffffffffffffffffffffffff16141515611db9576040517f08c379a00000000000000000000000000000000000000000000000000000000081526004018080602001828103825260188152602001807f496e73756666696369656e74207065726d697373696f6e73000000000000000081525060200191505060405180910390fd5b801515600260149054906101000a900460ff16151514151515611e44576040517f08c379a000000000000000000000000000000000000000000000000000000000815260040180806020018281038252600e8152602001807f4e6f7468696e67206368616e676500000000000000000000000000000000000081525060200191505060405180910390fd5b80600260146101000a81548160ff02191690831515021790555050565b606060008060008060011515600260169054906101000a900460ff161515141515611f1a576040517f08c379a00000000000000000000000000000000000000000000000000000000081526004018080602001828103825260218152602001807f54686520736563726574732061726520636c6f7365642061742070726573656e81526020017f740000000000000000000000000000000000000000000000000000000000000081525060400191505060405180910390fd5b60011515600260159054906101000a900460ff161515141515611fa5576040517f08c379a00000000000000000000000000000000000000000000000000000000081526004018080602001828103825260158152602001807f50617920636c6f7365642061742070726573656e74000000000000000000000081525060200191505060405180910390fd5b85600380549050111515612021576040517f08c379a00000000000000000000000000000000000000000000000000000000081526004018080602001828103825260138152602001807f536563726574206973206e6f742065786973740000000000000000000000000081525060200191505060405180910390fd5b60038681548110151561203057fe5b90600052602060002090600702019350600115158460030160009054906101000a900460ff1615151415156120cd576040517f08c379a00000000000000000000000000000000000000000000000000000000081526004018080602001828103825260178152602001807f536563726574206973206e6f7420617661696c61626c6500000000000000000081525060200191505060405180910390fd5b6000846005015414806120e35750428460050154115b1515612157576040517f08c379a00000000000000000000000000000000000000000000000000000000081526004018080602001828103825260108152602001807f53656372657420697320636c6f7365640000000000000000000000000000000081525060200191505060405180910390fd5b348460020154111515156121d3576040517f08c379a00000000000000000000000000000000000000000000000000000000081526004018080602001828103825260148152602001807f496e73756666696369656e74207061796d656e7400000000000000000000000081525060200191505060405180910390fd5b6000600660003373ffffffffffffffffffffffffffffffffffffffff1673ffffffffffffffffffffffffffffffffffffffff16815260200190815260200160002060008881526020019081526020016000205414151561229b576040517f08c379a00000000000000000000000000000000000000000000000000000000081526004018080602001828103825260188152602001807f596f75206861766520706179207468697320736563726574000000000000000081525060200191505060405180910390fd5b6064605034028115156122aa57fe5b0492506064600a34028115156122bc57fe5b04915081833403039050823073ffffffffffffffffffffffffffffffffffffffff163110151515612355576040517f08c379a000000000000000000000000000000000000000000000000000000000815260040180806020018281038252600f8152602001807f6e6f7420656e6f75676820636f696e000000000000000000000000000000000081525060200191505060405180910390fd5b816001600082825401925050819055508060008082825401925050819055508360030160019054906101000a900473ffffffffffffffffffffffffffffffffffffffff1673ffffffffffffffffffffffffffffffffffffffff166108fc849081150290604051600060405180830381858888f193505050501580156123de573d6000803e3d6000fd5b5042600660003373ffffffffffffffffffffffffffffffffffffffff1673ffffffffffffffffffffffffffffffffffffffff168152602001908152602001600020600088815260200190815260200160002081905550600184600601600082825401925050819055503373ffffffffffffffffffffffffffffffffffffffff16867f9a385d0bbafb5795622ee6607c7794704fb9095994bd96ef893f9c5a3ca683a2426040518082815260200191505060405180910390a3600460008781526020019081526020016000208054600181600116156101000203166002900480601f01602080910402602001604051908101604052809291908181526020018280546001816001161561010002031660029004801561253d5780601f106125125761010080835404028352916020019161253d565b820191906000526020600020905b81548152906001019060200180831161252057829003601f168201915b5050505050945050505050919050565b3373ffffffffffffffffffffffffffffffffffffffff16600260009054906101000a900473ffffffffffffffffffffffffffffffffffffffff1673ffffffffffffffffffffffffffffffffffffffff16141515612612576040517f08c379a00000000000000000000000000000000000000000000000000000000081526004018080602001828103825260188152602001807f496e73756666696369656e74207065726d697373696f6e73000000000000000081525060200191505060405180910390fd5b801515600260159054906101000a900460ff1615151415151561269d576040517f08c379a000000000000000000000000000000000000000000000000000000000815260040180806020018281038252600e8152602001807f4e6f7468696e67206368616e676500000000000000000000000000000000000081525060200191505060405180910390fd5b80600260156101000a81548160ff02191690831515021790555050565b6003818154811015156126c957fe5b9060005260206000209060070201600091509050806000018054600181600116156101000203166002900480601f0160208091040260200160405190810160405280929190818152602001828054600181600116156101000203166002900480156127755780601f1061274a57610100808354040283529160200191612775565b820191906000526020600020905b81548152906001019060200180831161275857829003601f168201915b505050505090806001018054600181600116156101000203166002900480601f0160208091040260200160405190810160405280929190818152602001828054600181600116156101000203166002900480156128135780601f106127e857610100808354040283529160200191612813565b820191906000526020600020905b8154815290600101906020018083116127f657829003601f168201915b5050505050908060020154908060030160009054906101000a900460ff16908060030160019054906101000a900473ffffffffffffffffffffffffffffffffffffffff16908060040154908060050154908060060154905088565b600260159054906101000a900460ff1681565b600260149054906101000a900460ff1681565b655af3107a400081565b6000803373ffffffffffffffffffffffffffffffffffffffff16600260009054906101000a900473ffffffffffffffffffffffffffffffffffffffff1673ffffffffffffffffffffffffffffffffffffffff16141515612966576040517f08c379a00000000000000000000000000000000000000000000000000000000081526004018080602001828103825260188152602001807f496e73756666696369656e74207065726d697373696f6e73000000000000000081525060200191505060405180910390fd5b83600380549050101515156129e3576040517f08c379a00000000000000000000000000000000000000000000000000000000081526004018080602001828103825260138152602001807f536563726574206973206e6f742065786973740000000000000000000000000081525060200191505060405180910390fd5b6003848154811015156129f257fe5b906000526020600020906007020190508215158160030160009054906101000a900460ff16151514151515612a8f576040517f08c379a000000000000000000000000000000000000000000000000000000000815260040180806020018281038252600e8152602001807f4e6f7468696e67206368616e676500000000000000000000000000000000000081525060200191505060405180910390fd5b828160030160006101000a81548160ff0219169083151502179055505092915050565b600260009054906101000a900473ffffffffffffffffffffffffffffffffffffffff1681565b815481835581811115612b0557600702816007028360005260206000209182019101612b049190612c4f565b5b505050565b828054600181600116156101000203166002900490600052602060002090601f016020900481019282601f10612b4b57805160ff1916838001178555612b79565b82800160010185558215612b79579182015b82811115612b78578251825591602001919060010190612b5d565b5b509050612b869190612ce9565b5090565b828054600181600116156101000203166002900490600052602060002090601f016020900481019282601f10612bcb57805160ff1916838001178555612bf9565b82800160010185558215612bf9579182015b82811115612bf8578251825591602001919060010190612bdd565b5b509050612c069190612ce9565b5090565b8260028101928215612c3e579160200282015b82811115612c3d578251829060ff16905591602001919060010190612c1d565b5b509050612c4b9190612ce9565b5090565b612ce691905b80821115612ce25760008082016000612c6e9190612d0e565b600182016000612c7e9190612d0e565b60028201600090556003820160006101000a81549060ff02191690556003820160016101000a81549073ffffffffffffffffffffffffffffffffffffffff021916905560048201600090556005820160009055600682016000905550600701612c55565b5090565b90565b612d0b91905b80821115612d07576000816000905550600101612cef565b5090565b90565b50805460018160011615610100020316600290046000825580601f10612d345750612d53565b601f016020900490600052602060002090810190612d529190612ce9565b5b505600a165627a7a72305820ffae9041fab2cac803f70431d8871d396345d9c038a17cc826d2aed023d2999d0029",
  "source": "pragma solidity ^0.4.25;\n\n\ncontract Whisper {\n\n    uint256 public constant DEDUCTPOINT = 100;  //  %\n    uint256 public constant DEDUCTPOST = 80;    //\n    uint256 public constant DEDUCTADMIN = 10;   //\n    uint256 public constant DEDUCTFEEDBACK = 10;    //\n    uint256 public constant MINPAY = 0.0001 ether;  //\n\n    uint256 public adminProfit = 0; //\n    uint256 public feedbackProfit = 0;  //\n    address public admin;   //\n    bool public secretOpen; //\n    bool public payOpen;    // \n    bool public whisperOpen;    //\n    \n    struct Secret {\n        bytes title;   //\n        bytes description; //\n        uint256 payAmount;  //\n        bool available; //\n        address publisher;  //\n        uint256 publishTime;    //\n        uint256 closeTime;  //\n        uint256 payTimes;   //\n    }\n\n    Secret[]  public secrets;    //\n\n    mapping(uint256 => bytes) internal answer; //\n    mapping(uint256 => bytes32[]) public tags;   //\n    mapping(address => mapping(uint256 => uint256)) private userPays;   //-id-\n    mapping(address => mapping(uint256 => uint256)) private userFeedbacks;   //-id-\n    mapping(uint256 => uint256[2]) public feedback; //[,]\n\n    // \n    event NewSecret(\n        uint256 indexed id,\n        address indexed publisher,\n        bytes title,\n        uint256 publishTime,\n        uint256 payAmount\n    );\n\n    // \n    event PaySecret(\n        uint256 indexed id,\n        address indexed payUser,\n        uint256 payTime\n    );\n\n    // \n    event FeedBackSecret(\n        uint256 indexed id,\n        address indexed feedbackUser,\n        uint256 feedbackTime,\n        uint256 rewardAmount\n    );\n\n    //\n    modifier openWhisper {\n        require(\n            whisperOpen == true,\n            \"The secrets are closed at present\"\n        );\n        _;\n    }\n\n    //\n    modifier openSecret {\n        require(\n            secretOpen == true,\n            \"The secrets are closed at present\"\n        );\n        _;\n    }\n\n    //\n    modifier openPay {\n        require(\n            payOpen == true,\n            \"Pay closed at present\"\n        );\n        _;\n    }\n    //\n    modifier ownerOnly {\n        require(\n            admin == msg.sender,\n            \"Insufficient permissions\"\n        );\n        _;\n    }\n\n    constructor(address ownerArg) public {\n        admin = ownerArg;\n        whisperOpen = true;\n        secretOpen = true;\n        payOpen = true;\n    }\n\n    function modifyNewSecret(bool _sw) public ownerOnly {\n        require(secretOpen != _sw, \"Nothing change\");\n        secretOpen = _sw;\n    }\n\n    function modifyPaySecret(bool _sw) public ownerOnly {\n        require(payOpen != _sw, \"Nothing change\");\n        payOpen = _sw;\n    }\n    \n     //\n    function modifyWhisper(bool _ava) public ownerOnly {\n        require(whisperOpen != _ava, \"Nothing change\");\n        if (!_ava) {\n            uint256 amount = feedbackProfit;\n            feedbackProfit = 0;\n            admin.transfer(amount); \n        }\n        whisperOpen = _ava;\n    }\n\n\n    function modifyAdmin(address _admin) public ownerOnly {\n        require(_admin != admin, \"Set a new admin\");\n        admin = _admin;\n    }\n\n    //\n    function setNewSecret(bytes _title, bytes _desc, bytes _content, bytes32[] _tag,\n        uint256 _coin, uint256 _closeTime) public openWhisper openSecret returns(bool success) {\n        //_closeTime0\n        require(_closeTime == 0 || _closeTime > now, \"Close time must be greater than the current time\");       \n        require(_coin >= MINPAY, \"Pay is too low\");\n        require(_title.length > 0 && _title.length <= 60, \"Title cannot be empty and less than 20 words\");\n        require(_content.length > 0 && _content.length < 1500, \"Answer cannot be empty and less than 500 words\");\n        require(_desc.length < 1500, \"Description less than 500 words\");\n\n        uint sid = secrets.length++;\n        secrets[sid] = Secret({\n            title : _title,\n            description : _desc,\n            payAmount : _coin,\n            available : true,\n            publisher : msg.sender,\n            publishTime : now,\n            closeTime : _closeTime,\n            payTimes : 0\n            });\n        answer[sid] = _content;\n        for (uint i=0; i<_tag.length; i++) {\n            tags[sid].push(_tag[i]);\n        }\n        \n        feedback[sid] = [0,0];\n\n        emit NewSecret(sid, msg.sender, _title, now, _coin);\n        return true;\n    }\n\n    //\n    function paySecret(uint256 _sid) public openWhisper openPay payable returns(bytes) {\n        require(secrets.length > _sid, \"Secret is not exist\"); //\n        Secret storage secret = secrets[_sid];\n        require(secret.available == true, \"Secret is not available\"); //\n        require(secret.closeTime == 0 || secret.closeTime > now, \"Secret is closed\"); //\n        require(secret.payAmount <= msg.value, \"Insufficient payment\"); //\n        require(userPays[msg.sender][_sid] == 0, \"You have pay this secret\");\n        // \n        uint256 publisherReward = msg.value * DEDUCTPOST / DEDUCTPOINT;\n        // \n        uint256 feedbackReward = msg.value * DEDUCTFEEDBACK / DEDUCTPOINT;\n        // \n        uint256 ownerReward = msg.value - publisherReward - feedbackReward;\n        require(address(this).balance >= publisherReward, \"not enough coin\");\n        feedbackProfit += feedbackReward;\n        adminProfit += ownerReward;\n        \n        secret.publisher.transfer(publisherReward);\n\n        userPays[msg.sender][_sid] = now;\n        secret.payTimes += 1;   //1\n\n        emit PaySecret(_sid, msg.sender, now);\n\n        return answer[_sid];\n    }\n\n    //\n    function feedBackSecret(uint256 _sid, bool _like) public openWhisper returns(bool success) {\n        require(secrets.length > _sid, \"Secret is not exist\"); //\n        Secret storage secret = secrets[_sid];\n        require(secret.available == true, \"Secret is not available\"); //\n        require(userPays[msg.sender][_sid] > 0, \"Pay this secret First\");   //\n        require(userFeedbacks[msg.sender][_sid] == 0, \"You have like it\");\n        if(_like) {\n            feedback[_sid][0] += 1; //1\n        }else{\n            feedback[_sid][1] += 1; //1\n        }\n        //20%10%\n        uint256 reward = 0;\n        if(feedback[_sid][0] + feedback[_sid][1] == 1) {\n            reward = feedbackProfit * 20 / DEDUCTPOINT;\n        }else{\n            reward = feedbackProfit * 10 / DEDUCTPOINT;\n        }\n        require(feedbackProfit > reward, \"Not enough coin\");\n        feedbackProfit -= reward;\n        userFeedbacks[msg.sender][_sid] = now;\n        emit FeedBackSecret(_sid, msg.sender, now, reward);\n        msg.sender.transfer(reward);\n        return true;\n    }\n\n    //\n    function withdrawAdminProfit() public ownerOnly {\n        require(adminProfit > 0, \"No adminProfit\");\n        uint256 amount = adminProfit;\n        require(address(this).balance >= amount, \"not enough money\");\n        adminProfit = 0;\n        admin.transfer(amount);\n    }\n\n    //\n    function modifyOneSecret(uint256 _sid, bool _ava) public ownerOnly returns(bool) {\n        require(secrets.length >= _sid, \"Secret is not exist\"); //\n        Secret storage secret = secrets[_sid];\n        require(secret.available != _ava, \"Nothing change\");\n        secret.available = _ava;\n    }\n    \n    //\n    function secretCount() public view returns(uint256) {\n        return secrets.length;\n    }\n}\n",
  "sourcePath": "/usr/linjing/solidity/whisper/contracts/Whisper.sol",
  "compiler": {
    "name": "solc",
    "version": "0.4.25+commit.59dbf8f1.Emscripten.clang"
  },
  "schemaVersion": "2.0.2",
  "updatedAt": "2019-03-05T06:45:10.696Z"
}